:1000000000100020E9090000E9590000E95900004A
:10001000E9590000E9590000E9590000E9590000D8
:10002000E9590000E9590000E9590000E9590000C8
:10003000E9590000E9590000E9590000E9590000B8
:10004000E9590000E9590000E9590000E9590000A8
:10005000E9590000E9590000E9590000E959000098
:10006000E9590000E9590000E9590000E959000088
:1000700071440000E9590000E9590000D90400006A
:10008000F1520000E9590000E9590000E959000067
:10009000E9590000A5130000E9590000E9590000E2
:1000A000E959000021150000FD140000E959000085
:1000B000E9590000E9590000E9590000E959000038
:1000C000E9590000E9590000E9590000E959000028
:1000D000E9590000E9590000E9590000E959000018
:1000E000E9590000E9590000E9590000E959000008
:1000F000E9590000E9590000E9590000E9590000F8
:10010000E9590000E9590000E9590000E9590000E7
:10011000E9590000E9590000E9590000E9590000D7
:10012000E9590000E9590000E9590000E9590000C7
:10013000E9590000E9590000E9590000E9590000B7
:10014000013800D0FCE7704710B5054C237833B96F
:10015000044B13B1044800E000BF0123237010BD1D
:100160000C12002000000000286A000008B5034BB4
:100170001BB10349034800E000BF08BD00000000B8
:1001800010120020286A0000A3F5803A704700BFD3
:10019000174B002B08BF134B9D46FFF7F5FF0021BF
:1001A0008B460F461348144A121A05F0F0FE0E4B08
:1001B000002B00D098470D4B002B00D09847002013
:1001C000002104000D000D48002802D00C4800E07A
:1001D00000BF04F0F3FC2000290005F057F804F0FC
:1001E000D9FC00BF00000800000000000000000073
:1001F000001000200C120020E41600200000000077
:100200000000000070B5044605F0C9FE054E251833
:10021000AC4200D170BD304614F8011B05F0C1FDA1
:10022000F6E700BF0000065008B500F061F900F0E5
:1002300059F9034B40211868BDE8084005F0ADBAF4
:100240001410002010B5ADF5836D274805F042FC71
:10025000264805F0D8FB002841D0234805F03DFC96
:10026000234C01AB02AA4021206805F04BFA019A09
:10027000204906A804F0C6FC06A8FFF7C3FF029AAF
:100280001D4946A804F0BEFC46A8FFF7BBFF206846
:1002900005F064F904AA03A9206800F0CFFA029AD5
:1002A000164986A804F0AEFC86A8FFF7ABFF2068CD
:1002B00005F020FB05AA42F21071206800F07AFBDD
:1002C000059804F07FFA02460B46C6A80C4904F0D4
:1002D00099FCC6A8FFF796FF0DF5836D10BD024887
:1002E00005F0FEFBBCE700BFC8620000B062000082
:1002F00014100020206200003362000044620000FD
:100300005162000010B5234C01F092FF02F07EF91B
:10031000236F23F0070343F00303236705F0D1FCA9
:100320001D4B00209B6A9B075EBF01221B4B9A62FC
:10033000D4F8203123F0030343F00203C4F8203142
:10034000D4F8243123F0070343F00203C4F8243126
:10035000D4F8403123F0030343F00203C4F84031E2
:10036000D4F8603123F0030343F00203C4F8603192
:10037000D4F8403223F0030343F00203C4F84032C0
:10038000D4F8003223F0070343F00203C4F800322C
:1003900010BD00BF0080005000C0005000E00050C1
:1003A00008B5134B1B68C3F30743012B0ED1114B48
:1003B00004205A6E4FF480230F49520358BF0F4A4E
:1003C0004B6601F51041086258BF536603F05EFAB0
:1003D00004F0A9FF03F0ECF903F00CFA03F040FA83
:1003E000FFF790FF03F0F4F9BDE8084004F084BF84
:1003F0000080E00F008000500090005000A00050EE
:1004000008B53A20012101F05BFDBDE80840014834
:1004100000F012BC0010002030B595B01E4D0DACA0
:100420000FCD0FC495E80700032384E807008DF87B
:100430004D302923194A1A49CDE90223194B1024BA
:10044000CDE904134FF480732246002109A80693D6
:1004500005F09DFD4FF4A020134B0DAACDE9070335
:100460000F238DF82430114B11480A9320230B934E
:1004700001238DF831300F4B07A9009302AB8DF8A3
:10048000254003F0B3FC044618B185210A4805F065
:10049000B4FA204615B030BD94620000000006504A
:1004A000000500060008000724000650BA160020C8
:1004B00074120020281200206462000008B5FFF7C3
:1004C000ABFF28B1BDE808409721024805F095BA76
:1004D00008BD00BF64620000014805F0B5BC00BF64
:1004E00074120020014805F089BA00BFB062000014
:1004F000014805F0EFBA00BFC862000018B1034B15
:100500001860002070472520704700BFEC120020C3
:1005100010B5054C0549206801F002FA2068BDE8D5
:100520001040FFF7EBBF00BF3C1000201810002068
:1005300008B5082816D00DDC022803DC002811DCE1
:100540009F2102E00428FBD176210F4805F055FADF
:100550000E200EE020280DD0402810D01028EFD11A
:100560008821F2E7042201231146002002F0DCFA80
:10057000002008BD0123042218461146F6E7002199
:10058000012304220846F1E7E062000008B50828CC
:1005900016D00DDC022803DC002811DCEB2102E080
:1005A0000428FBD1C2210F4805F027FA0E2013E0E2
:1005B00020280AD0402810D01028EFD1D421F2E70B
:1005C000042200231146184603E0042200231146AA
:1005D000012002F0A9FA002008BD002304221946D8
:1005E000F1E700BFE06200000822014B1A67704784
:1005F00000D003500822014B1A67704700E00350F7
:10060000F0B589B03F4D01AC0FCD0FC495E80700A0
:1006100084E80700012401213A2001F051FC3A4FFF
:100620000121282001F04CFC384B384601A90393E6
:100630008DF8124003F04EF82346042200210220D8
:1006400002F072FA224621460023022002F06CFAE0
:10065000022123460846042202F066FA04220321FE
:100660002346022002F060FA4FF00213284D0226C2
:10067000C5F83036A3F58033C5F82C361C23C5F8F1
:1006800034664FF44870C5F81C3603F00BFF142095
:10069000FFF7B0FF03F006FF2320FFF7A5FF03F0ED
:1006A00001FFB9213846FFF7A5FF05F070FBFFF702
:1006B0009BFF002330461A46194602F035FA002304
:1006C00021461A46304602F02FFA2346314630467C
:1006D000002202F029FA234600220321304602F0CC
:1006E00023FA384602F028FF00212820C5F83016EA
:1006F000C5F82C16C5F83416C5F81C1601F0E0FB39
:1007000009B0F0BD3C63000000C0055000127A0043
:1007100000C0035013B50446B4F57A5F084611468D
:1007200002DCB2F57A5F08DD064B07220093204613
:10073000042304F0FCFD02B010BD034B0F22009314
:100740000923F6E7C0110020D011002010B586B0B3
:100750000A4B8DF800100193012301A91446CDF82E
:1007600008D0ADF80C300492ADF8143000F024FB42
:1007700010B1FF233120237006B010BDAA00040081
:1007800000B589B00C4B8DF80810039302AB0493AD
:100790000223ADF8143001AB0693002303A98DF8B2
:1007A0000920ADF81C3000F007FB002814BF3120F1
:1007B000002009B05DF804FBAA00010070B58AB002
:1007C000104C8DF8081002A905940C469D18AB42F8
:1007D00001F1010112D101AB089300230132D2B221
:1007E00005A90694ADF81C20ADF8243000F0E4FA19
:1007F000002814BF312000200AB070BD13F8016B2F
:100800000E70E4E7AA00010010B586B08DF8001064
:100810000121094CADF80C1001A90194CDF808D0C4
:100820000493ADF8142000F0C7FA002814BF31205B
:10083000002006B010BD00BFAA0004002DE9F04161
:1008400088B005460F46164604F048FE0446C82008
:1008500003F0B0FC122128460DF10B02FFF776FFE2
:100860009DF80B800444B8F10F0F26D103A9284648
:1008700004F0D6FEDDE906210598FFF74BFF07EEF1
:10088000900ADFED0F6AB8EEE77A27EE267A0D4B75
:1008900087ED007A0093424602230499002004F079
:1008A00046FD07EE900AF8EEE77A204667EEA67A54
:1008B000C6ED007A08B0BDE8F0810520C8E700BFAA
:1008C00000008039F411002000B589B00B4B8DF881
:1008D00007100393012303A9ADF81430ADF81C30C1
:1008E0000DF107030493069200F066FA002814BF86
:1008F0003120002009B05DF804FB00BF6000040057
:1009000000B589B00D4B8DF8071003930123ADF8A6
:100910001430ADF81C300DF10703049303A90DF159
:1009200006038DF80620069300F046FA002814BF4F
:100930003120002009B05DF804FB00BF6000080012
:100940007FB527240E4B054618689B880290ADF8AA
:100950000C3002AE2146284601340DF10702E4B204
:1009600004F07BFF48B928469DF8072016F8011BC4
:10097000FFF7C6FF08B92D2CECD104B070BD00BF45
:100980005863000010B586B00023094A01A9CDE9DB
:100990000123ADF80C3000F00FFA044628B90A2004
:1009A00003F080FD204606B010BD3120FBE700BFFC
:1009B0006000010013B545F214039942144694BF38
:1009C0000021012101AA04F0ADFFDDED017ADFED88
:1009D000056AF8EEE77A87EEA67A84ED007A02B02F
:1009E00010BD00BF00007A4408B500F02DF8124B8E
:1009F00012498B4212D30020114B12498B4218D35B
:100A0000FFF7C6FB186850F82240586840F82240AB
:100A1000013298688242F5D30C33EAE70022F8E706
:100A20001C6844F8220001325C68A242F8D3083303
:100A3000E4E70022F8E700BF306A00003C6A0000EB
:100A40003C6A00003C6A000010B54FF400414FF0D2
:100A5000FF30124B124A9A60D3F8882042F4700299
:100A6000C3F888200F4A916601F1884101F50052D0
:100A700010664FF6DF7050660220C3F8D000BFF357
:100A80004F8FBFF36F8F08244FF440330648C0F8F0
:100A90008041D36004600B6110BD00BF00ED00E039
:100AA000000000000090005000E100E0014B1868D9
:100AB000704700BF44110020084B1B6F03F0070371
:100AC000022B04D0032B05D0012B05D0FEE7044BED
:100AD00018687047034BFBE70348704700800050DD
:100AE0004411002048110020002D310108B5FFF706
:100AF000E3FF054B1B6FC3F303330133B0FBF3F08C
:100B0000024B186008BD00BF00800050401100205B
:100B10000048704700B4C404014B1868704700BF18
:100B200048110020054B1860054B1B6F03F00703AD
:100B3000032B01D1FFF7DABF704700BF4811002037
:100B40000080005000487047002D3101014B1868AB
:100B5000704700BF4C11002005490A68131805486A
:100B600083428CBF4FF0FF320B601046704700BFCE
:100B7000501100200080002038B50D460446D8B141
:100B800001281CD002281CD0032803D10F23EB40DE
:100B9000DB0704D440F2CF310B4804F02EFF3022A3
:100BA000142312FB043303F1A04303F570331868D8
:100BB000E84000F0010038BD40F2FF13E7E71F23D3
:100BC000E5E7FF23E3E700BF5F63000037B5046894
:100BD000012105463A2001F073F9002301226179D1
:100BE000207901F0A1FF61792079FFF7C5FFB0FA04
:100BF00080F35B092370A379022B15D100F028FC48
:100C00002A460B49607900F04DFCFF28054603D1C8
:100C10004F21084804F0F1FE0123617920792A462A
:100C2000CDE9003301F006FF002003B030BD00BF66
:100C3000135A0000AD6300002DE9FF47044618B9C0
:100C40002C21584804F0D9FE2368574A93420AD011
:100C5000564A934200F083804221524804B0BDE8D6
:100C6000F04704F0CABE2E20012101F029F901232A
:100C70000A226179207901F057FF01230A22E179E4
:100C8000A07901F051FF09274FF00108DFF8249106
:100C9000474D267994F805A0002E62D0012E63D02E
:100CA000022E63D0032E04D10F2323FA0AF3DA07AE
:100CB00004D440F2FE31484604F09FFE302202FB8D
:100CC000065642F2100208FA0AF3B350642003F009
:100CD000E9FB267994F805A0002E49D0012E4AD0D0
:100CE000022E4AD0032E04D10F2323FA0AF3DB0786
:100CF00004D440F22D41484604F07FFE302202FB2E
:100D0000065641F2100208FA0AF36420B35003F0C9
:100D1000C9FB013FBDD12068234B98422FD103234B
:100D2000C5F890346279237943EA0243C5F89434D4
:100D3000E279A37943EA0243C5F8983440F20113FB
:100D4000ADF80030E36869460293A3680193237C01
:100D50008DF80C3001F0CAFF04B0BDE8F0872F20F9
:100D600082E740F2FF13A0E71F239EE7FF239CE7E3
:100D700040F2FF13B9E71F23B7E7FF23B5E70B4B9B
:100D80009842DBD10323C5F8A0346279237943EA82
:100D90000243C5F8A434E279A37943EA0243C5F8D3
:100DA000A834CBE70C6400000000015A0080065014
:100DB00000C003505F63000038B5054602F0ECF850
:100DC000044C012801D1013C00D138BD284601F076
:100DD000C1FFF6E7E193040038B50D460446D8B1EB
:100DE00001281CD002281CD0032803D10F23EB407C
:100DF000DB0704D440F2FE310B4804F0FEFD302046
:100E0000012142F21003444304F1A04401FA05F524
:100E100004F57034E55038BD40F2FF13E7E71F23B7
:100E2000E5E7FF23E3E700BF5F63000038B50D4649
:100E30000446D8B101281CD002281CD0032803D1B5
:100E40000F23EB40DB0704D440F22D410B4804F0A4
:100E5000D4FD3020012141F21003444304F1A044A9
:100E600001FA05F504F57034E55038BD40F2FF1382
:100E7000E7E71F23E5E7FF23E3E700BF5F63000029
:100E800038B504784578D4B1012C1BD0022C1BD086
:100E9000032C03D10F23EB40DB0704D44FF489610B
:100EA0000A4804F0AAFD30220123544343F2100201
:100EB00004F1A044AB4004F57034A35038BD40F2B7
:100EC000FF13E8E71F23E6E7FF23E4E75F63000083
:100ED00070B5057804464678FDB1012D20D0022D6D
:100EE00020D0032D03D10F21F140CB0704D44FF4C0
:100EF00083610D4804F081FD1023302212FB05327E
:100F000002F1A04202F570321368F34003F00100D1
:100F1000A3780BB980F0010070BD40F2FF11E3E748
:100F20001F21E1E7FF21DFE75F6300002DE9F04FBC
:100F300085B09A46554B06461B780F461546DDF898
:100F40003C909DF844B0DDF85080002B00F08D807F
:100F5000072A00F28C800E9B002B00F08880B9F1EC
:100F6000000F00F08480129BB3F5006F7FDC012836
:100F700002D1109B002B7AD0454B03EB05131B7B52
:100F8000002B76D0434C10220021684604F0FFFF6E
:100F900004EB45141022002F59D13946204604F0A5
:100FA000F6FF43F210036380BBF1000F03D1E37837
:100FB00043F00303E370374A0E9B02EB451CCCE978
:100FC0000193129B6901013BC3F30A009DF84C3069
:100FD000012E03F003034FEA836343EA001E5358D4
:100FE0002D48CDF800A000EA03004EEA000353505C
:100FF00041D113230CF1100ECCF80C309CE80F00FB
:101000008EE80F006FF00301DCF81C20109B61F3E9
:101010009F02012FCCF81C20CCF8143003D1CCF85F
:101020001890CCF804300027194A290102EB051367
:1010300042F80180159A28465A60694622469F6008
:101040005E7302F091F8384605B0BDE8F08F0021DC
:10105000204604F09CFF4FF444736380BBF1000F03
:10106000A9D1E37843F03003A4E70C48ECE70C483F
:10107000EAE70C48E8E7B8F1000FD4D19CF8023059
:1010800068F304138CF80230CDE700BFDA160020B5
:10109000F0120020701300200F80FFF3028000F098
:1010A000018000F0078000F038B5124B05461B7830
:1010B000DBB1E0B104F021FE0F4A00231146147B9E
:1010C00054B92B6001251A0101EB03131D738C50D9
:1010D00004F019FE204638BD0133082B02F110023E
:1010E000EDD104F010FE0548F5E70548F3E70548A3
:1010F000F1E700BFDA160020F0120020048000F0B3
:10110000028000F0018000F013B504F0F6FD00232A
:101110000B4A147B7CB90133082B02F11002F8D181
:10112000019001F097FF074B01981C7004F0EBFD54
:10113000204602B010BD04F0E6FD0348F9E700BF09
:10114000F0120020DA160020058000F010B50D4BDB
:1011500004461B7893B1072812D804F0CEFD0A4B41
:1011600003EB04131A7B2AB100241C7304F0CBFD9B
:10117000204610BD04F0C7FD0448FAE70448F8E72C
:101180000448F6E7DA160020F0120020068000F08E
:10119000028000F0018000F013B5154B18680023A1
:1011A00001908DF8043004F0A8FD124B1C7824B196
:1011B00004F0A9FD104802B010BD01221A7004F01D
:1011C000A2FD0E4B01A81C731C7783F82C4083F8FA
:1011D0003C4083F84C4083F85C4083F86C4083F8D3
:1011E0007C4008238DF8073001F074FF2046E2E7C9
:1011F00064640000DA160020038000F0F012002082
:1012000008B50A4A12785AB107280BD8084A02EBE7
:1012100000131B7B43B1002101F03AFF002008BD01
:101220000448FCE70448FAE70448F8E7DA16002027
:10123000F0120020028000F0018000F0078000F032
:1012400008B50A4A12785AB107280BD8084A02EBA7
:1012500000131B7B43B1012101F01AFF002008BDE0
:101260000448FCE70448FAE70448F8E7DA160020E7
:10127000F0120020028000F0018000F0078000F0F2
:1012800008B50A4A127852B107280AD8084A02EB70
:1012900000131B7B3BB101F0E7FF002008BD0548B0
:1012A000FCE70548FAE70548F8E700BFDA16002032
:1012B000F0120020028000F0018000F0078000F0B2
:1012C0000D4B1B7893B1072812D889B10B4B03EB58
:1012D00000131B7B73B10A4BDA6A012303FA00F097
:1012E00010401ABF00200B70087070470548704707
:1012F0000548704705487047DA160020F0120020B4
:1013000000000450028000F0018000F0078000F02F
:101310000D4B1B7893B1072812D889B10B4B03EB07
:1013200000131B7B73B10A4B1A6D012303FA00F003
:1013300010401ABF00200B700870704705487047B6
:101340000548704705487047DA160020F012002063
:1013500000000450028000F0018000F0078000F0DF
:1013600010B50B4A0C46127862B107280CD859B157
:10137000084A02EB00131B7B43B101F091FF207080
:10138000002010BD0448FCE70448FAE70448F8E7E9
:10139000DA160020F0120020028000F0018000F038
:1013A000078000F02DE9F843174B1F6D5B6D1F4060
:1013B00000D5FEE701260025144CDFF85480DFF845
:1013C0005490374217D02368C8F850609BB1A16889
:1013D000284601316268A1609847637B012B0AD1DE
:1013E00048B909EB45131A7B60F341021A731A7F5F
:1013F00060F341021A770135082D4FEA460604F1E1
:101400001004DED1BDE8F88300000450F012002083
:10141000002004507013002070B5012504460B4EC7
:1014200004B970BD94FAA4F0B0FA80F005FA00F3A4
:1014300006EB001224EA03045368002BF0D0117B62
:1014400011B191689847EBE79847E9E770140020DD
:1014500008B5192001F00EF928B14FF00072074BC2
:10146000C3F880211A601A2001F004F928B14FF066
:101470008062024BC3F880211A6008BD00E100E0E1
:1014800038B505460C4604F038FC0022044B03EB4B
:1014900005135C601A73BDE8384004F034BC00BF2B
:1014A00070140020F8B505460F46164604F025FCDA
:1014B000104B05F0FC02D3F824140023EC1804F0C0
:1014C0000304144321FA04FC1CF0010F07D001337C
:1014D000042BF3D1FF2404F016FC2046F8BDFF2CAA
:1014E000F9D00122044B03EB0413C3E901761A730C
:1014F000F1E700BF00C0035070140020074BD3F881
:101500002404D3F8202403F50053104000F0553094
:1015100020F05020C3F82004FFF77EBF00C0035026
:10152000074BD3F82404D3F8202403F500531040CC
:1015300000F0AA3020F0A020C3F82004FFF76CBF11
:1015400000C0035038B141B1013AB2F5006F044810
:1015500038BF00207047034870470148704700BFFC
:10156000037000F0027000F038B50D460446D8B1A3
:1015700001281CD002281CD0032803D10F23EB40E4
:10158000DB0704D440F2FE310B4804F036FA302079
:10159000012142F21003444304F1A04401FA05F58D
:1015A00004F57034E55038BD40F2FF13E7E71F2320
:1015B000E5E7FF23E3E700BF5F63000038B50D46B2
:1015C0000446D8B101281CD002281CD0032803D11E
:1015D0000F23EB40DB0704D440F22D410B4804F00D
:1015E0000CFA3020012141F21003444304F1A044DD
:1015F00001FA05F504F57034E55038BD40F2FF13EB
:10160000E7E71F23E5E7FF23E3E700BF5F63000091
:1016100030B51049104A0B782BB9C2E90033C2E942
:10162000023301230B700C4C0023214651F8045B5C
:10163000854208D00133042BF8D1002154F8043B33
:101640001BB942F82100002003E001310429F5D143
:10165000024830BDDB16002070160020027000F03A
:1016600038B590F83530022B26D1447F90F82150C0
:10167000DCB1012C1CD0022C1CD0032C03D10F2276
:10168000EA40D30704D440F2CF310C4804F0B5F956
:101690003023142213FB042303F1A04303F570331A
:1016A0001868E84000F0010038BD40F2FF12E7E79B
:1016B0001F22E5E7FF22E3E70020F5E75F63000074
:1016C00013B500231D4A52F8044B94F821108142AF
:1016D0000ED00133042BF6D102B010BD0028FBD18F
:1016E0009DF80730002BF7D0A068FFF789FDF3E7DE
:1016F00094F83530022BEFD12046FFF7B1FF637E1F
:101700002076022BE8D194F8323003F0FF02002B50
:10171000E2D1A0680DF107018DF80720FFF7D0FD99
:10172000237E1BB194F83330002BD7D00023A06860
:1017300084F83330FFF784FDCEE700BF7016002039
:1017400010B50446FFF728FD002104F10800FFF75B
:10175000ABFC014620B904F10C00FFF7A5FC00B179
:10176000004810BD0E7000F008B590F8363083B90F
:10177000042203685A619A699207FCD541F21C62FF
:10178000102103795B0103F1A04303F570339950F5
:1017900008BD022BFCD10068036CDB074CBF0521A0
:1017A000062101F0ABF80222014BC3F8C020EFE79D
:1017B00000D40350F8B505460E461746FFF7C2FEA3
:1017C00000286ED1152000F06FFF0446EA6A938866
:1017D0009BB213B195F83230E3B195F83630F3B9D6
:1017E0002B689C6904F002041CB92846FFF7BCFF73
:1017F0000024012385F8343095F83630FBB937449E
:10180000BE42286816D183699A06FCD54CB30024E1
:101810002046F8BD002CDAD0FFF7C4FDD6E7022B36
:1018200002D12B681C6CDDE740F643211E4804F012
:10183000E4F8DAE716F8011B04F0B3FAE0E7022B4C
:10184000E4D13744B742286806D142F22003026C43
:1018500033EA0202FBD1D9E716F8011B04F079FA4A
:10186000F0E795F836306BB942F21C6210212B7903
:101870005B0103F1A04303F57033995008222B68F4
:101880005A61C5E7022BC3D12868036CDB074CBF44
:101890000921214601F032F80222044BC3F8C0208E
:1018A000B6E70446B4E700BF6864000000E40350F4
:1018B00010B5044680B190F832302BB9FFF7D0FE56
:1018C00010B9A068FFF79CFC002094F83230013377
:1018D000DBB284F8323010BD0048FCE7027000F043
:1018E00010B50446A0B190F832309BB190F8323078
:1018F000012B05D1FFF7B4FE10B9A068FFF7A0FCDB
:10190000002094F83230013BDBB284F8323010BD55
:101910000148FCE70148FAE7027000F0057000F0AA
:101920002DE9F04188B00446734F01AE0D460FCF4C
:101930000FC697E8070086E80700002C00F0DA8061
:1019400025B96E4E304608B0BDE8F0816022002116
:10195000204604F01CFB00232046A363FFF758FE3B
:1019600006460028EED12B7D84F835302B6884F8AC
:10197000360023602A7B2271614A934240F09E80A8
:10198000282363625F4B23614FF480230026636149
:10199000D5E90723A26216805680968084F83060CD
:1019A000E3621E805E809E806B6884F831600393E2
:1019B000EB8984F83360ADF814302B8A0121ADF83F
:1019C0001230AB7C3A208DF81030EB7CDFF8488188
:1019D0008DF8163005238DF8113000F071FA0121D1
:1019E000606A00F06DFA286801A98DF8046001F0C2
:1019F000DFFD14222B7B08EB4313C3F81C262E7A41
:101A0000A87A46EA0042C3F83426697AEA7A41EABB
:101A10000247C3F82C76E676E077217784F8202019
:101A20006B7D01216377AB7D204684F82130EB7D0F
:101A3000A3772B7E84F8223004F092F80646002823
:101A400080D104F05AF92B7D0746032B41D141F296
:101A50001C6202212B7B08EB431848F8021004217A
:101A60002A685B0102F58052D165297EEA7D03F187
:101A7000A04342EA014203F57433C3F82826A97D46
:101A80006A7D42EA0142C3F824264FF0FF322868FB
:101A900000F500539A642B7D032B0CBF0521042114
:101AA00001F028FD4FF440622B6820465A61FFF791
:101AB00047FE0646384604F026F943E7124A9342A9
:101AC0007FF43FAF29236362104B23614FF4A023BF
:101AD0005CE7022BD9D194F821000D49FFF7D0FC27
:101AE000FFF7B6FC4FF4007320462383A67604F07C
:101AF000A7F8CAE7074E25E7C0640000037000F0AE
:101B000000C005500200040000000650020005005D
:101B1000C1160000027000F000C00350044BD3F85F
:101B20008420D206FBD4D3F88400C0F38110704720
:101B30000040005038B5124B0546D3F820310C4612
:101B400003F00303022B0BD0032B0DD0012B0FD17D
:101B5000FEF7ACFF052305B1286004B1236038BD52
:101B6000FEF7DAFF0323F6E7FEF7ECFF0223F2E7C6
:101B7000044841F2711103F040FF00231846EAE7E0
:101B800000800050FC640000F7B50027114B01975E
:101B9000D3F88041064604F00304012C0D4608D01A
:101BA000022C12D041F2BE210B4803F026FF3C4626
:101BB00004E0394601A8FFF7BDFF0F240EB1019BD9
:101BC000336005B12C6003B0F0BDFEF7BBFF0190A0
:101BD000F4E700BF00800050FC64000038B5194BEA
:101BE0000546D3F824310C4603F00703013B052BCF
:101BF00020D8DFE803F0030F171B0B13FEF756FF87
:101C0000052305B1286004B1236038BDFEF74EFFFF
:101C10000623F6E7FEF780FF0323F2E7FEF77CFFDB
:101C20000423EEE7FEF78EFF0223EAE703F0DDFE72
:101C30000723E6E7044840F6C76103F0DEFE002311
:101C40001846DEE700800050FC64000038B5124BF7
:101C50000546D3F840310C4603F00303022B0BD0AA
:101C6000032B0DD0012B0FD103F0C1FE092305B1C9
:101C7000286004B1236038BDFEF768FF0823F6E74B
:101C800003F0B8FE0B23F2E7044841F29F1103F082
:101C9000B4FE00231846EAE700800050FC64000010
:101CA00038B5154B0546D3F800320C4603F0070350
:101CB000013B032B18D8DFE803F0020A0E1203F0F1
:101CC00096FE092305B1286004B1236038BDFEF7F4
:101CD0003DFF0823F6E703F08DFE0B23F2E7FEF746
:101CE00005FF0E23800AEDE7044841F2743103F04A
:101CF00084FE00231846E5E700800050FC640000E5
:101D000038B5124B0546D3F840320C4603F00303B6
:101D1000022B0BD0032B0DD0012B0FD103F067FE4C
:101D2000092305B1286004B1236038BDFEF70EFF1A
:101D30000823F6E703F05EFE0B23F2E7044841F2C6
:101D4000073103F05AFE00231846EAE700800050EE
:101D5000FC64000038B5124B0546D3F860310C46E0
:101D600003F00303022B0BD0032B0DD0012B0FD15B
:101D700003F03DFE092305B1286004B1236038BD9E
:101D8000FEF7E4FE0823F6E703F034FE0B23F2E748
:101D9000044841F2CD1103F030FE00231846EAE773
:101DA00000800050FC64000010B40F4C0B46D4F8C7
:101DB000204204F00304012C0ED0022C10D008B1F4
:101DC000002101600BB100221A6040F6F161074862
:101DD0005DF8044B03F011BE5DF8044BFFF7AABE9B
:101DE0005DF8044BFFF732BF00800050FC64000038
:101DF00010B5B0F5207F34D009D8B0F5007F2AD0D7
:101E000003D898B1B0F5C07F10D0002421E0B0F520
:101E1000607FFAD1154BD3F88030C3F301149B06D1
:101E200017D5032C15D04FF421710FE00F4B1C6F09
:101E3000230B13F00E0FC4F303340AD0032C08D085
:101E4000072C06D00F2C04D04FF41D71084803F066
:101E5000D4FD601C10BD054BD3F89040C4F304645E
:101E6000F7E7024B1C6FC4F38024F2E700800050B8
:101E7000FC64000010B54FF400320E4B04469A6625
:101E80000020FFF7B5FF41F6713260430A4C0B4B5F
:101E9000A0428CBF4FF480100020D969DA639A68A1
:101EA00022F4401202439A60CA0344BF0022DA635C
:101EB00010BD00BF00900050005A620200000350A5
:101EC00070B5460904460D460FD140F21B310D484E
:101ED00003F093FD334604F01F0485B103F58053EE
:101EE000012000FA04F41C6070BD012E05D0064BE1
:101EF000064A022E18BF1346EDE7054BEBE703F544
:101F00000053EDE7FC6400006880005060820050E0
:101F10006480005030B585B00023802804460193CA
:101F200074D02AD8002877D0A0F12004412C32D8D0
:101F3000412C30D8DFE804F0707370738686868693
:101F40007373903FA6653F7373732F2F2F2F2F2F1F
:101F50008B57737373B0AB732F2F2F2F2F2F2F2F00
:101F60002F2F2F2F2F702F707070862F2F2F2F2F26
:101F70002F2F2F2F2F2F2F2F7070B0F5806F61D044
:101F800024D8B0F5007F54D00BD8B0F5807F68D04E
:101F9000B0F5C07F40D04FF48F61424803F02DFD73
:101FA00037E0B0F5607F44D0F5D8B0F5207F36D06B
:101FB000B0F5407FEFD1FEF799FD04464FF4207055
:101FC000FFF716FFB4FBF0F0400821E0B0F5C06F5A
:101FD00058D00DD8B0F5A06F39D0B0F5B06F3BD068
:101FE000B0F5906FD7D1002101A8FFF7F7FD10E001
:101FF000B0F5E06F4BD0B0F5F06F4DD0B0F5D06FCD
:10200000C9D1002101A8FFF74BFE02E0FEF754FD05
:102010000190019805B030BDFEF768FDF8E7FEF7C6
:1020200065FD04464FF42070FFF7E2FEB4FBF0F0CC
:10203000EEE7FEF741FD05462046FFF7D9FEB5FB6A
:10204000F0F0E5E7002101A8FFF774FDE1E70021CA
:1020500001A8FFF7A9FEDCE7002101A8FFF794FD26
:10206000D7E702934FF0E0231B695B0705D5FEF726
:102070003DFD0290029B0193CBE703A902A8FFF765
:10208000E5FDF7E7002101A8FFF7E0FDC1E700212A
:1020900001A8FFF735FEBCE7002101A8FFF75AFEB3
:1020A000B7E700BFFC64000008B58020FFF732FFEF
:1020B000034B98429EBF4FF48032024B1A6708BD13
:1020C000005A620200A000501FB50023B0F5807FC7
:1020D00001937FD027D8382800F09C800BD8243873
:1020E000092810D809280ED8DFE800F06F6F6F6F4D
:1020F0000D0D670D3685522867D007D83D283AD098
:102100003E2800F08C8040F2595152E08028FAD1EC
:10211000454B1B6F03F00703013B032B47D8DFE858
:1021200003F044413F75B0F5D06F64D019D8B0F5D5
:10213000A06F6FD00AD8B0F5806F46D0B0F5906F21
:10214000E1D1002001A9FFF749FD3AE0B0F5B06FF9
:1021500033D0B0F5C06FD6D1002001A9FFF776FDCE
:102160002FE0B0F5006FECD00AD8B0F5E06F56D094
:10217000B0F5F06FC7D1002001A9FFF7EBFD20E01B
:10218000B0F5086FBFD1284BD3F8003103F003033B
:10219000022B35D0032B37D0012B39D1FEF7BCFCF5
:1021A000032300E0052301930BE00223FBE740F249
:1021B000AA411E4803F021FC03E0002001A9FFF71B
:1021C000E3FC019805B05DF804FB002001A9FFF7CE
:1021D000B1FCF6E702934FF0E0231B695B0705D5DE
:1021E000FEF784FC0C230393039BDCE703A902A8FE
:1021F000FFF72CFDF8E7002001A9FFF751FDE0E70C
:10220000FEF7A4FC0823CEE703F0EFFB0723CAE7A1
:102210000123C8E7002001A9FFF7C6FDD1E7002090
:1022200001A9FFF76DFDCCE700800050FC640000C1
:102230004FF40022034B5A66012203F580439A6251
:10224000704700BF0090005070B5036804460F2B24
:1022500004D940F6F2216E4803F0CFFB63680F2BE0
:1022600004D940F6F5216A4803F0C7FBA3680F2B99
:1022700004D940F6F821664803F0BFFB237B0F2BFF
:1022800004D940F6FB21624803F0B7FB637B0F2BB8
:1022900004D940F6FE215E4803F0AFFBA37B3F2B41
:1022A00004D940F601315A4803F0A7FBE37B3F2BEA
:1022B00004D940F60431564803F09FFB2369032BF1
:1022C00004D940F60731524803F097FB6369032BAA
:1022D00004D940F60A314E4803F08FFBE369012B25
:1022E00004D940F60D314A4803F087FB8020FFF700
:1022F000EBFE032800F082804FF40022454B0221C0
:102300005A6645F60E03444AC2F88030434B996240
:10231000012103F580539962936DD903FCD4D4E96C
:1023200000131B0543EA0163E17B94F822500B4341
:10233000217B94F8236043EA0143617B43EA013344
:10234000A17B43EA811313619169D4E904031B065D
:1023500043EA806301F000410B43A17EE07E0B4322
:10236000217E43EA0143617E43EA01239361E369ED
:10237000126A002B0CBF0021082122F00D0242EA54
:10238000030242EA8002244B42EA01021A6294F8F4
:1023900020204FEA421232D1986A94F8211020F09E
:1023A000330042EA0112024342F001029A621C4ADF
:1023B000996D32EA0101FBD1022218498A621A653D
:1023C0009A6D5200FCD41869A26820F4700040EAAB
:1023D00002504FF000421861104B9A611DB9022261
:1023E00003F580539A6216B901220E4B9A6294F853
:1023F00024301BB1084B0C4AC3F8802070BD996A89
:1024000021F0330131430A4342EA4502EEE700BFBF
:10241000FC6400000090005000C0005000D000504C
:102420000300014000E00050F1A7FFFF014B93F9CA
:1024300000007047DC16002010B543680446072BE7
:1024400004D940F614512A4803F0D7FAA368032BA5
:1024500004D940F61651264803F0CFFA2378032B0F
:1024600004D940F61851224803F0C7FA94F9013014
:10247000002B04DA40F61A511D4803F0BEFA4FF45F
:1024800080011C4A637851664FF4D151022002F555
:10249000B832516218494F2B48604FF0010028BFF5
:1024A0004F2301F5805148601169C903FCD421789C
:1024B00043EA01235361D4E901131B0143EA0123D9
:1024C000617B0B43217B43EA41039360E37BA17B68
:1024D0001B0143EA4113617C0B43217C43EA410326
:1024E0005360A37C13B16FF4D153536210BD00BF8E
:1024F000FC6400000090005000100250014B188056
:10250000704700BFFC11002010B5B0F5207F65D0EA
:102510000ED8B0F5007F4FD003D800B3B0F5C07F20
:102520001DD040F2FE21BDE81040344803F065BAEA
:10253000B0F5607FF5D14C1E012C06D9042904D0DA
:1025400040F2E1212D4803F058FA2D4AD2F88030AC
:1025500023F0300343EA0413C2F8803010BD102981
:1025600001F1FF3404D8274B23FA01F1CB0704D43F
:1025700040F2B521214803F040FA03F08FFB03F04D
:102580009BFB4FF48031204B1D4A1967136F23F4D6
:10259000704343EA04331367FEF7A8FA0446FFF7D3
:1025A000BDFAC0F10201204603F080FB00F03EF8C6
:1025B000BDE81040FFF778BD4C1E1F2C04D940F237
:1025C000F2210E4803F019FA0D4BD3F8901021F0C8
:1025D000F85141EA0461C3F89010BFE74C1E012C8A
:1025E00004D94FF43E71054803F007FA044B196F04
:1025F00021F4806141EA84211967AFE7FC6400009F
:1026000000800050160101000090005008B5012123
:10261000022000F089F803F041FB03F04DFB4FF47A
:102620008032014B1A6708BD0090005008B54FF486
:10263000C070FFF76FFCBDE80840044988428CBFBA
:10264000022101214FF42070FFF75EBF80F0FA02F3
:102650000028ABBF00F16040054B00F5614000F081
:102660000F00ACBF90F80003185C0009704700BF72
:1026700014ED00E038B5C5B23F2D044604D940F250
:102680001F31074803F0B9F9064B640953F82400D9
:1026900005F01F05E840C04300F0010038BD00BF51
:1026A0004965000000E100E010B500F10C03DBB269
:1026B0004B2B044604D940F2AD21144803F09DF998
:1026C000EFF31083DB0702D50122104610BD204630
:1026D000FFF7D0FF02460028F6D12046FFF7B8FFEB
:1026E0000146EFF3118313B1B0EB131FECD2084B8B
:1026F0005B68C3F30803002BE7D0103B58B2FFF729
:10270000A7FF88428CBF00220122DEE74965000056
:1027100000ED00E0034A0179D36E23F030030B4350
:10272000D3667047004000502DE9F0410446264B27
:10273000D3F88420D006FBD4D3F88430C3F38113BC
:102740009C423ED0FEF7B8F9012C05460BD11F4B39
:10275000984204D940F23C711D4803F04EF9012122
:10276000284603F0A3FA03F0C1FA4FF00072194BA8
:1027700007465A66204603F0C9FA4FF48063124EAA
:10278000621E9340DFF848803367736E9A0103D46A
:10279000D6F884309B060AD5384603F0ABFA022CF3
:1027A0000FD12846BDE8F041002103F07FBAD6F8EA
:1027B00084309906E9D540F24A71404603F01DF98C
:1027C000E3E7BDE8F08100BF00400050005A62021C
:1027D000976500000060005007B518B90191FEF739
:1027E0006BF90199064B1B7843B1064B984205D80B
:1027F000012003B05DF804EBFFF796BF0220F8E775
:10280000DD160020005A620210B54FF0004201248C
:102810004AF6CD31154B5A66154A03F50B23546021
:102820005A6C1964224088B9996811F0010F114956
:1028300003D08C60D86AC007FCD501234B6012B16D
:102840000D4B0E4A1A6403F062FA10BDD96A0907EB
:10285000FCD42021074B59620121A3F580539960D4
:1028600005494B6A9B06FCD5E9E700BF0090005084
:102870000050095000600950004009503254FFFFD9
:1028800038B54FF00042194B194C5A66012203F536
:102890000C235A604AF6CD33656C236443781540A7
:1028A00093401343134AD363A368827823F07403DD
:1028B00043EA0213C278002A14BF04220022134301
:1028C000A3600279837943EA022323614279C379C1
:1028D00043EA022363610078FFF796FF0DB1064BD0
:1028E000236403F014FA012038BD00BF00900050AB
:1028F00000400950004000503254FFFF38B5154BDE
:10290000044698420D4604D040F26511124803F087
:1029100074F825B92046BDE8384003F0FDB901221E
:1029200004F580535A6040F2FF71204605F00F0213
:1029300003F0EEF92263782103F0EAF905F00103D0
:102940006A0748BF43F00203226C02F003029A4276
:10295000FAD138BD0000035AE465000070B51F29A4
:1029600004460D46164603D99121074803F045F861
:1029700036B104F58054012101FA05F5256070BDDA
:1029800004F50054F7E700BF3466000038B50D4683
:102990000446D8B101281CD002281CD0032803D13A
:1029A0000F23EB40DB0704D440F22D410B4803F02A
:1029B00024F83020012141F21003444304F1A044E3
:1029C00001FA05F504F57034E55038BD40F2FF1307
:1029D000E7E71F23E5E7FF23E3E700BF5F630000AE
:1029E00038B50D460446D8B101281CD002281CD0A9
:1029F000032803D10F23EB40DB0704D440F2FE3160
:102A00000B4802F0FAFF3020012142F21003444348
:102A100004F1A04401FA05F504F57034E55038BD21
:102A200040F2FF13E7E71F23E5E7FF23E3E700BFDB
:102A30005F6300002DE9F3470D4614461E468146AC
:102A40009DF828809DF82C70002843D0012844D0A0
:102A5000022844D0032803D10F23EB40DB0703D423
:102A6000BF21284802F0C9FF85EA040333F00303BD
:102A700003D0C121234802F0C0FF072C4FF003010F
:102A800005F003052DD84FEA840A01FA0AF11E4821
:102A900009FA0AF2019103F061F901991B4805FA5C
:102AA0000AF203F05BF9324621461948FFF756FF58
:102AB000424621461748FFF751FF0123164AA3401B
:102AC000C2F8203421463A46144802B0BDE8F04727
:102AD000FFF744BF40F2FF13BFE71F23BDE7FF230B
:102AE000BBE7A4F1080A4FEA8A0A01FA0AF10C4886
:102AF00009FA0AF2019103F031F90199094805FA3E
:102B00000AF2CEE78166000000C4035008C40350F7
:102B100010C4035014C4035000E0035024C40350F5
:102B200004C403500CC40350F8B50D4616461F46A6
:102B3000044660B301282DD002282DD0032803D1EC
:102B40000F22EA40D30704D44FF4B0711B4802F0BF
:102B500054FF26B12946204607B3FFF717FF04EBC1
:102B60004403072D4FF00F014FEA031319D8A800B3
:102B700006FA00F281401248184403F0EFF8E6B973
:102B800029462046AFB1BDE8F840FFF7FFBE40F24E
:102B9000FF12D6E71F22D4E7FF22D2E7FFF720FF7C
:102BA000DDE7A5F10800800006FA00F28140054843
:102BB000E2E7BDE8F840FFF713BFF8BD816600000B
:102BC00004C003500CC00350F8B506460C46154629
:102BD0009ABB40F20F11BDE8F8402F4802F00DBF3C
:102BE0002E4B9E4201D12F203DE040F229112A4870
:102BF00002F003FF3AE0032F42D0294B3CE06FEA9A
:102C0000C50505442C44B4FBF0F4013C0AD540F260
:102C10007511214802F0F1FE4FF4BB711E4802F01D
:102C2000ECFE02E0B4F5007FF6D2B3689B0702D554
:102C3000002C08BF0124B461F8BD03F003078368CA
:102C400023F44073836003F051F8B26882EA0723EB
:102C500003F440735340B36003F04CF834B9114BA4
:102C60009E42BDD12E20FFF755F90446B3689A075E
:102C7000C1D5032F04D00C4B53F827309C4204D805
:102C80004FF4AF71044802F0B8FE084BD85D6843BA
:102C9000B5D140F26F119EE7CF660000008006506C
:102CA000286700000000015A1C670000346700001C
:102CB00038B50B4B044698420D4607D0094B984255
:102CC00004D040F28F11084802F097FE043425B179
:102CD00004F580540123236038BD04F50054F9E75E
:102CE0000000015A00800650CF66000038B5154B31
:102CF000044698420D4607D0134B984204D04FF437
:102D0000D271124802F079FE0023114A236404F5BF
:102D10000053DA636A7804F108037AB903F5805343
:102D200002221A602046D5E901122B7BFFF74CFFE7
:102D300020462978BDE83840FFF7BABF03F50053B5
:102D4000EEE700BF0000015A00800650CF66000089
:102D5000FFFF1F002DE9F843894B98420BD0894BA8
:102D6000984226D0884840F2FB1102F046FE6FF0F0
:102D70000300BDE8F883854B402505264FF0000889
:102D80004FF0030C996800F50054C26B12F4C06F49
:102D900015D097050FD5FD225A7009221A7000220E
:102DA000026493F90110012900D15A7093F90100CE
:102DB000DFE7774BE0E75605EFD5FE22ECE71F781B
:102DC000082F00F2D880DFE817F009001F0041004B
:102DD0004C006900740096009E00CD004C880A8863
:102DE000E5060AD5120A02F0060242F0F0020121BD
:102DF00019704263C1600120BBE702F0FE02A10727
:102E000048BF42F00102F2E7170607D5802100F51E
:102E10000052D1634FF608721A8062E05206EAD57A
:102E20004A88E563D70604D502221A700B784363FB
:102E3000E1E7920765D507221A701B7901EBC30100
:102E40000B89012BD7D10823C360D4E71706DDD443
:102E50005206D0D54A88E563970752D583F800C05B
:102E600093E74C880A88E50643BF120A02F006027F
:102E700042F0F00202F0FE02640709D51C7942F02C
:102E8000010201EBC4010989012904BF0821C160C5
:102E9000042119700123C3604263ACE71706B5D45F
:102EA0005706A8D54A88E56352072AD507221A7023
:102EB000A1E71A795F8801EBC20EBEF80890B94508
:102EC00011D80132D2B21A714F88A3F8028017F0DC
:102ED000040FC3D1FF0702D4012A7FF656AF0822A0
:102EE0001A700223B0E7DEF80420791C5980D25D05
:102EF00042630622DBE7170688D457067FF57BAFCF
:102F0000E5631E7041E794067FF575AF456A214C75
:102F100046691A793440B4F5003F04BF466A4FF45D
:102F2000005601EBC20100F500540A8908BFE663B0
:102F30002026E6635C88A24281BF4968661C5E80E9
:102F40000D5559888A42CAD90424012AC46004D97B
:102F5000013A914201D10822C2601A78092A3FF44D
:102F60001EAF48E7D2057FF546AF4FF4807100F5FC
:102F70000052D16311E74FF609321A800FE700BF04
:102F80000000015A00800650CF6600008016002025
:102F90008C1600202000020038B5284B04469842C9
:102FA0000D4644D0264B98423ED040F25E31254833
:102FB00002F023FD002D3DD140F25F31214802F0A7
:102FC0001CFD1E4B9C4228D11F4B2269D00744BFD9
:102FD0002022E2606A88910701D5298951B35207FE
:102FE00001D52A8A32B34FF480721A6000229D60A4
:102FF0001A71C023E3606369DB0513D4202204F552
:103000000053DA63114A2046DA63236C43F4FC630D
:103010002364BDE83840FFF79DBE094B9C4209D1AF
:103020000B4BD2E7636AE6E70029F9D1C4E7002930
:10303000CAD1C1E76FF0030038BD00BF0000015ADC
:1030400000800650CF66000080160020FFFF1F00A2
:103050008C16002010B54FF400120B4BC3F88020E3
:10306000BFF34F8FBFF36F8F0024FF22074B214622
:103070005C6520209A625C60FEF722FF2146BDE875
:1030800010402120FEF71CBF00E100E000000450CA
:1030900038B5072804460D4603DD7721094802F0BC
:1030A000ACFC1F2C03D99121074802F0A6FC074B6A
:1030B000074A0120002D18BF134600FA04F41C60D3
:1030C00038BD00BF3867000034660000401004506F
:1030D0004020045010B5044618B991211F4802F051
:1030E0008CFC23781B0613F0604F03D092211B4801
:1030F00002F083FCE3780F2B03D9A321174802F0D9
:103100007CFC01212020FEF7DBFE01212120FEF7BF
:10311000D7FE0122124B5A60227812069A6061781B
:10312000A27842EA01429A61FF229A6200229A63DF
:103130001A644FF000425A654FF0FF324FF400110D
:1031400003F500531A65074AC2F88011E3781B01A2
:10315000DBB282F81533116010BD00BF3867000084
:103160000000045000E100E02DE9F0410126C3B267
:10317000072805460C46904606FA03F603DDEC21C7
:10318000354802F03AFC1CB9ED21334802F035FC19
:10319000236823F47C1323F00F031BB1F0212E4886
:1031A00002F02BFCA37A1B0413F47C0F04D040F232
:1031B0000911294802F021FCE37A1B0513F07E6F08
:1031C00004D040F20B11244802F017FC237B5B056E
:1031D00013F0FE5F04D040F20D111F4802F00DFC09
:1031E00030201E4A637B166521681D4F02F5005290
:1031F00042F8251000FB05752B66E37AA27A1B05C1
:1032000043EA0243227B43EA425328F00302EB6580
:103210002A6702F072FD7B6D33437B65237A13B11D
:103220003B6C33433B64637A13B1BB6B3343BB6387
:103230002279A37943EA0243084A93616179E379E9
:1032400043EA014307498B61054B56639E64BDE821
:10325000F04102F058BD00BF386700000020045064
:10326000000004500010045010B50124C3B2072818
:1032700004FA03F404DD40F29711074802F0BDFBA5
:1032800002F03BFD054B5A6D22EA04025A659C622E
:10329000BDE8104002F037BD386700000000045060
:1032A00010B50124C3B2072804FA03F404DD40F288
:1032B000B5110A4802F0A1FB02F01FFD084BDA6AC3
:1032C000224209D15B6B34EA03030CBF01240024C2
:1032D00002F019FD204610BD0024F9E73867000010
:1032E0000000045038B5022805460C4603D94C218D
:1032F0000C4802F082FBE378627821785B0143EAB4
:10330000820322790B4343EA02130C226A4302F13F
:10331000B0421363012902BFA278034B43F8252072
:1033200038BD00BF86670000E880035008B54FF045
:10333000B0435A6802B960B15B680BB102F01FFD7F
:103340004FF0B04130B10120074B586002F017FD3B
:10335000C86008BD02F013FD0223CB6002F00FFD30
:103360000122024B5A60F4E7001000580020005878
:1033700070B54FF0B0435B680BB102F000FD012166
:10338000104B4578596083780679002BC37814BFB9
:1033900002240024002B14BF042200224379DB0006
:1033A00043EA06132B43234313434FF0B042936089
:1033B000054B59600378002B14BF0B460223D360E2
:1033C00070BD00BF00200058001000582DE9F041EA
:1033D00080460E461F46154622B94FF4A17131486A
:1033E00002F00BFB26B94FF42070FEF793FD064662
:1033F000402F2AD009D8A7B1202F1CD040F2891124
:10340000BDE8F041274802F0F8BA602FF6D1B5EBDD
:10341000960F04D940F28311224802F0EEFA0424F8
:103420001DE0B5EB161F04D94FF4BA711D4802F028
:10343000E4FA102413E0B5EBD60F04D940F2791169
:10344000184802F0DAFA082409E00624B6FBF4F37F
:10345000AB4204D24FF4BF71124802F0CEFA6C4373
:10346000610801EB4616B6FBF4F40F4E203CB6EBB8
:10347000C40F4FEAC40504D24FF4D071094802F0DA
:10348000BCFAD8F80830354023F06003C8F808309B
:10349000D8F808301F43C8F80870C8F81C50BDE8B9
:1034A000F08100BFD4670000F8FF7F0070B50646CA
:1034B0000C46154622B940F28E210C4802F09DFAC6
:1034C00024B94FF42070FEF725FD04466D00013C41
:1034D000B4FBF5F4064B250213EA042304D040F2B2
:1034E000B321024802F089FAF56170BDD46700008B
:1034F000070080FF38B50E4B044698420D4608D0B1
:1035000003F58043984204D04FF43371094802F028
:1035100074FA012204F580535A60EB43934003F0A0
:103520000A036361656115B904F50054626038BD32
:1035300000C00550D467000010B5194B04469842EE
:1035400008D003F58043984204D040F24241154828
:1035500002F053FA012204F580535A6040F6AA6340
:1035600041F20502636100230F49A360E365E26055
:1035700004F500522361E361E36491640849A365A3
:103580008C4202D00948844207D18C42236502D084
:10359000064B9C4201D1002363650123536010BD9B
:1035A00000C00550D4670000FFFF01000000065076
:1035B00070B5444B044698420D4608D003F580434D
:1035C000984204D040F2FD213F4802F016FA20460E
:1035D000FFF7B2FF012304F580567360AB7C1BB18B
:1035E000A36843F08043A360EB7C5BB1354A2B7D3D
:1035F000944245D1A2F51032C2F88C31E36D43F00C
:103600008003E3652A8A6B7B20461343EA891343D0
:10361000E3602B7BD5E90112FFF7D8FE6B7D1BB170
:10362000A36843F48033A360AB7D1BB1A36843F46C
:103630000043A360EB7D2A7E1B07120502F4E00223
:1036400003F0E0431343A365697E1E4A8B1E012BE2
:103650001E4B1FD894421BD002F5804294420CBFEF
:1036600001224FF0FF3203EB4213022041F21C62B1
:103670000329985020D10423F3652B78636170BD32
:10368000134A944204BFA2F52032C2F89C31B5E738
:103690000022E8E794420DD00D4A94420CBF01226B
:1036A0004FF0FF3203EB4213022042F21C62012969
:1036B0009850DFE70022F5E7042204F50053DA65AD
:1036C000DBE700BF00C00550D467000000C0035016
:1036D0000000065038B5334B044698420D4608D0DA
:1036E00003F58043984204D040F269312E4802F03D
:1036F00084F92046FFF720FF0122A97B04F58053BF
:103700005A602A8AA368002914BF4FF480610021FF
:1037100042F0010213432A7D0B43002A14BF4FF0ED
:1037200000520022A360A3681343A360AB7C5BB18B
:103730001C4AEB7C94422DD1A2F51032C2F88C3198
:10374000E36D43F08003E3652B7B2046D5E901124E
:1037500043F48053E360FFF7A9FE6B7B0BB11023AA
:1037600063616B7D1BB1A36843F48033A360AB7DC1
:103770001BB1A36843F40043A360EB7D2A7E1B07C3
:10378000120503F0E04302F4E0021343A3652B7833
:10379000636138BD054A944204BFA2F52032C2F8E5
:1037A0009C31CDE700C00550D467000000000650F2
:1037B00007B56B46054A1068516803C36846FFF7B2
:1037C0005FF8002003B05DF804FB00BF2368000031
:1037D00013B50024064A6846536F43F0010353674C
:1037E00000948DF80440FEF795FF204602B010BD0E
:1037F0000040005030B58BB06C46154D0FCD0FC456
:103800000FCD0FC495E8030084E80300114BD3F8F3
:103810004C21120314D4D3F85041E4B28DF819406E
:10382000FEF704FE204480F308008DF818000A48D3
:10383000FDF778F96846FEF707FD00200BB030BDB4
:10384000064B1C884FF6FF739C4208BF7824E5E7BF
:103850002C6800000080E00F00F049020001E00F3A
:1038600030B587B0084D01AC0FCD0FC42B6801A84F
:10387000236025238DF80530FEF7DEFD6420FEF77A
:103880003DFE002007B030BD5468000010B56FF059
:10389000040250210A480B4C12F0800FD3B21BBF18
:1038A00003F00F03043BA3181B1802F101020CBF25
:1038B00083F800131976402AEED1002010BD00BF16
:1038C00000ED00E000E100E010B5044602F00EFA61
:1038D000024B1C6002F00EFA002010BD981600206A
:1038E00010B502F003FA034B1C6802F003FA2046FD
:1038F00010BD00BF9816002038B53022037A044668
:10390000534303F1A04303F58023DD6ED0E9032385
:1039100013449D4201D8AA4204D94FF43E71054890
:1039200002F06BF8D4E9030303449D4218BF284614
:1039300038BD00BF6868000030B587B01446054642
:103940001046FFF7D9FF6369024683423CBFD4E9C2
:1039500003315B181B1AABB11249284603910021B1
:10396000CDE90131012304940093D4E9001302F05E
:10397000DDF820B14FF434710B4802F03EF800201E
:1039800007B030BD0122627694F82D20002AF6D0CF
:1039900084F835301321E369204698472046636A4E
:1039A0009847ECE739390000686800002DE9F047D6
:1039B00088B0044688461746994602F09EF982462A
:1039C000002F00F0AB80237E03F0FF02002B00F0FD
:1039D000DE802046FFF790FF63690546984206D1D6
:1039E000637E23B940F27F316A4802F006F86669C7
:1039F000B5429CBFD4E90352AD18AD1BBD4228BFF0
:103A00003D4602F07AF994F82D300646002B40F03E
:103A100096802A464046616902F0ACFA63692F46F7
:103A20002B4463612CE06069037803F0FD011129E8
:103A300040F08280216B884205D1A3F111014B42F5
:103A40004B4184F83430013F6369216B01328B4272
:103A500003F1010308BF236363619542E3D1D4E915
:103A60000323216B1344994208BF2263216B8A42CE
:103A700001D88B4204D84FF46D71464801F0BDFF68
:103A8000D4E9032361691344994208BF6261616903
:103A90008A4201D88B4204D84FF471713D4801F03D
:103AA000ACFF0023207A6376FDF7AAFB20B140F239
:103AB0001131384801F0A1FF2046FFF71DFF63696F
:103AC00083423FD10023E568237694F82D30656169
:103AD00003B125632046636A98472F4B2A46039318
:103AE000002302932369216801930123207A009324
:103AF0000494636802F01AF820B140F22D31254891
:103B000001F07BFF207AFDF79BFB20B140F25131A1
:103B1000204801F072FF304602F0F5F85046C9F82F
:103B2000007002F0F0F8D9F80030002B0CBF1B2019
:103B3000002008B0BDE8F08708F8013B84E72F4675
:103B400000228AE70123207A23760DF11E01FDF77A
:103B500007FC20B14FF450710E4801F04EFF9DF864
:103B60001E30002BCED0207A0DF11F01FDF7D0FBC7
:103B700020B140F24631074801F03FFF9DF81F1089
:103B80000029BFD12246207AFFF7D6FEBAE71746B2
:103B9000C4E700BF686800003939000070B504460A
:103BA0000568FFF79DFE844202D10020FFF78CFEDE
:103BB00095F93630002B11DB012203F01F015B0960
:103BC0009B0003F160438A4003F56143C3F8802101
:103BD000C3F88020BFF34F8FBFF36F8F287AFDF7B4
:103BE0004FFB20B14FF4ED71104801F006FF287A29
:103BF000FDF7ACFA20B14FF4EF710C4801F0FDFE77
:103C0000FDF782FA38B10A4B984204D04FF4F171B3
:103C1000064801F0F2FE00232846C4E90033C4E957
:103C20000433A360AB6ABDE87040184768680000C1
:103C3000058000F02DE9F84304460D4690F82C80ED
:103C4000DFF8AC908E18B54228D094F82D3083B1AF
:103C500002F053F8237E07461BBB226B63699A422E
:103C600004D040F2F911484601F0C7FE384602F090
:103C70004AF894F83430002BE5D0B8F1000F06D0A4
:103C80002B780A2B03D10D212046E3699847204663
:103C9000E36915F8011B98470028D4D00020BDE83F
:103CA000F8832046FFF728FEE1680138884238BFD4
:103CB0002069D4F830C03CBF00F1FF304018034603
:103CC0009C450BD013F80129112A01D0132A07D1E2
:103CD000A2F111035A425A4184F834202063C5E707
:103CE000994282BF236903F1FF335B18E8E700BF05
:103CF00068680000F0B587B00C46064615460021FE
:103D0000382220461F4602F042F995E803000023BE
:103D10002A692376EB6884E80300C4E904232A7D3A
:103D2000E36084F82C20AA7D2363012384F83430D7
:103D300084F835300C9B84F82D2023620D9BE761BD
:103D400063620E9BA3622B7A84F83630204B34607A
:103D50007360204BB360204B3361204B7361204B69
:103D6000F360FDF719FA30B11E4B984203D01024CE
:103D7000204607B0F0BD002104F10800FDF794F9DA
:103D80000028F4D10127184B0494CDE902032369DC
:103D9000009701936368E2682168207A01F0C6FE0B
:103DA00004460028E3D195F90830002B0BDB03F023
:103DB0001F025B099B0003F16043974003F56143D9
:103DC000C3F880711F603046FFF77EFDD0E700BF6B
:103DD000353C0000AD390000AD5D0000B35D000072
:103DE0009D3B0000038000F0393900002DE9F041CF
:103DF00086B01C46564B01270293564B0C9D0193EF
:103E00000023904600930A46CDE903772946524B9A
:103E1000FFF770FF0646002875D123683946AB636B
:103E200063683A20EB63637A85F84130237A85F83A
:103E30004030E37A85F84330A37A85F84230637BDB
:103E400085F84530237B85F84430E37B85F847309F
:103E5000A37B85F84630FEF733F83B460422617AAF
:103E6000207AFEF761FE3B460222E17AA07AFEF755
:103E70005BFE39466068FEF723F888F8006041462B
:103E80002068FFF795FB1422637C5B0103F1A043DC
:103E900003F57033C3F81C26617A227A42EA0142A4
:103EA000C3F83426E17AA27A42EA0142C3F82C260A
:103EB00085F8486098F81930032B47D8DFE803F0FD
:103EC0001A0227410123002785F8483000230222E7
:103ED000617B207BFEF728FE637B227B617C42EACC
:103EE00003421E4B49015A500422236803F58053B4
:103EF000DA657FB9AA6B0521D36C206843F004030F
:103F0000D364FFF7F7FA304606B0BDE8F08102232C
:103F100085F8483000230422E17BA07BFEF704FEF5
:103F2000022741F21C61627C0D4B03EB42104750AB
:103F3000E07BA17BB13241EA004103EB421399607F
:103F4000D8E70323012785F84830BFE72326DAE7BF
:103F5000C55D0000B95D00003D5E000024D6035041
:103F600000C0035030B50F4C41612368ABB92060ED
:103F7000836011E0891A9A681D4641612AB113468F
:103F80005A698A42F6D955B11A461346A860836029
:103F900013B15A69511A596130BD0025F0E720600C
:103FA000F5E700BFA816002010B501F0AEFF0A4CDF
:103FB0000A4B19682368C31A01B10BB9206010BD00
:103FC0004A699A423ABF9B1A0022D21A4A6128BF14
:103FD00000238968F0E700BF9C160020A816002087
:103FE00038B5134D2B685B6993B1124A02201468EF
:103FF0001C4401F091FF204600F0E8F900230E492F
:104000002A680B70D088800709D501230B7038BD52
:10401000022001F081FF022000F022FAEEE7926810
:10402000002AF4D050690344012BEBD9EFE700BF1D
:10403000A81600209C160020DF16002070B516463A
:104040009DF81420C0E903360271049ABDF81830B7
:104050000260002204460D468260C38006BB01F068
:1040600054FF2844A0613DB9E368656113B120465F
:104070002168984796B1354601F038FE0646FFF7AD
:1040800093FF29462046FFF76DFF074B1B68A342AD
:1040900001D1FFF7A5FF304601F02CFE002070BDD6
:1040A00001F033FF3044DDE7A816002000220C4960
:1040B0000B687BB183420AD183687AB193608368CD
:1040C0001BB15A6941690A445A61002070471A4677
:1040D0009B68EEE70028EFD0022070470B60EEE708
:1040E000A816002070B501F008FE144E054634787D
:1040F000FCB9134B1C60134B1C60134B1C8000F06D
:1041000021F9012001F008FF01F012FF0F4B0246D8
:10411000186020B9284601F0F6FD232070BD234623
:1041200040F2E7310A4800F0A5FB0A4B1860012372
:104130003370284601F0E7FD0020EFE7DE1600208F
:10414000A81600209C160020B8160020A4160020F7
:1041500018FCFFFFA016002038B50C46054698B1A4
:1041600091B100230B7001F0C8FD0121074B1B68C2
:104170000BB122781AB101F0C6FD002038BDAB4268
:1041800014BF9B682170F3E72220F7E7A8160020F0
:1041900038B540F2E7340021054B4FF47A721D68C0
:1041A0000023E5FB0041204600F064FB38BD00BF62
:1041B000A416002000B58DB001238DF80F30FFF755
:1041C000E7FF00230146CDE90033074A0DF10F0355
:1041D00004A801F074FE18B99DF80F30002BFBD134
:1041E0000DB05DF804FB00BFB95E00002DE9F84F8B
:1041F000C20704460BD54F4A138801339BB2138084
:10420000FFF7D2FE4C4B1B680BB1FFF7E9FEA3078B
:1042100040F18E8001F071FD4FF0000A05465646D0
:10422000FFF7C2FED046444FDFF814913C680CB152
:1042300063698BB10022414B012E1A7003D1BAF190
:10424000020F08BF1E70002C62D0FFF7C9FE28467F
:10425000BDE8F84F01F057BD23461A792179914204
:1042600088BF1C469B6813B15A69002AF5D02846BE
:1042700001F049FDD4F810A0BAF1000F4CD001F0C4
:1042800044FEA269851AEB17AA4578EB030344DACA
:10429000236913440122A36123691BB312BBEB17EB
:1042A000BAEB050563EB4303002B04DA4FF4A4617A
:1042B000484601F0A2FBA38B33B1E28B13449BB2BF
:1042C000B3F57A7F1CD2E38301F017FD82462946BD
:1042D0002046FFF747FEA369226950461344A361B5
:1042E00001F011FDE368B4F806A0013613B12046D1
:1042F0002168984701F001FD0546FFF755FE95E757
:10430000A3F57A73E383A369013D013BA361DBE776
:10431000022000F08DF89AE7554601F0EEFC834646
:104320002046FFF7C3FE584601F0EDFC0022B3E73C
:10433000BDE8F88FB8160020A8160020E01600206F
:10434000CA6800001FB500241D4B012118689A8817
:104350000290D3F806009B7A00903E20ADF80C2026
:104360008DF80430FDF7ACFD8DF8084001F0CBFD71
:104370008DF80C0002A8FEF7FBFF694601208DF8BE
:104380000040FEF7AFFF4FF0B04240F2FF319369BB
:1043900023F47F7323F0030393610A4B5961936AFB
:1043A00013F00803FBD113620120FEF7BFFF4FF4A7
:1043B0008052054BC3F880211A6004B010BD00BFC5
:1043C0002B6900000020005800E100E010B5044611
:1043D00001F08CFC4FF0B042936A1907FCD4136AC9
:1043E000116C5269520604D4CA1A032A01D88B42AE
:1043F0000ED1E21A022A98BFDC1CB4F1FF3F38BF8D
:10440000013C4FF0B0431C649A6942F040029A614B
:1044100001F070FC054A13783BB14FF0B041CB6B13
:1044200043F00203CB630023137010BD0112002080
:10443000820700F001030AD50121084A43F0400336
:1044400011704FF0B041CA6B22F00302CA634FF003
:10445000B0418A6922EA03038B6170470112002090
:10446000830742BF4022014B5A6170470010005839
:1044700010B501F042FC4FF0B04304465B695A06A8
:10448000074A03F0010003F0510348BF40F0020067
:104490005361FFF7ABFE2046BDE8104001F033BC8E
:1044A0000020005810B50446FCF720FB4FF47A7248
:1044B0009042B0FBF2F105D23621BDE810400C4825
:1044C00001F09BBA0B4BB3FBF1F30B49884201D9C6
:1044D0003C21F2E702FB04F0B0FBF3F0022806D91E
:1044E000BDE810400323B0FBF3F0FBF729BE10BD7D
:1044F0003669000040420F00E7CD9A3B81F0004151
:1045000002E000BF83F0004330B54FEA41044FEAB8
:10451000430594EA050F08BF90EA020F1FBF54EA53
:10452000000C55EA020C7FEA645C7FEA655C00F0EF
:10453000E2804FEA5454D4EB5555B8BF6D420CDDC0
:104540002C4480EA020281EA030382EA000083EA43
:10455000010180EA020281EA0303362D88BF30BDE3
:1045600011F0004F4FEA01314FF4801C4CEA113139
:1045700002D0404261EB410113F0004F4FEA033398
:104580004CEA133302D0524263EB430394EA050F23
:1045900000F0A780A4F10104D5F1200E0DDB02FA92
:1045A0000EFC22FA05F2801841F1000103FA0EF226
:1045B000801843FA05F359410EE0A5F120050EF1EC
:1045C000200E012A03FA0EFC28BF4CF0020C43FA1D
:1045D00005F3C01851EBE37101F0004507D54FF02A
:1045E000000EDCF1000C7EEB00006EEB0101B1F57A
:1045F000801F1BD3B1F5001F0CD349085FEA3000C0
:104600004FEA3C0C04F101044FEA445212F5800FCA
:1046100080F09A80BCF1004F08BF5FEA500C50F167
:10462000000041EB045141EA050130BD5FEA4C0C4A
:10463000404141EB0101013C28BFB1F5801FE9D2A7
:1046400091F0000F04BF01460020B1FA81F308BFCA
:104650002033A3F10B03B3F120020CDA0C3208DD96
:1046600002F1140CC2F10C0201FA0CF021FA02F171
:104670000CE002F11402D8BFC2F1200C01FA02F1E1
:1046800020FA0CFCDCBF41EA0C019040E41AA2BF06
:1046900001EB0451294330BD6FEA04041F3C1CDACE
:1046A0000C340EDC04F11404C4F1200220FA04F0EE
:1046B00001FA02F340EA030021FA04F345EA030198
:1046C00030BDC4F10C04C4F1200220FA02F001FA5A
:1046D00004F340EA0300294630BD21FA04F02946DC
:1046E00030BD94F0000F83F4801306BF81F4801175
:1046F0000134013D4EE77FEA645C18BF7FEA655CE8
:1047000029D094EA050F08BF90EA020F05D054EAB9
:10471000000C04BF1946104630BD91EA030F1EBFBE
:104720000021002030BD5FEA545C05D140004941C2
:1047300028BF41F0004130BD14F580043CBF01F5B5
:10474000801130BD01F0004545F0FE4141F470019B
:104750004FF0000030BD7FEA645C1ABF1946104676
:104760007FEA655C1CBF0B46024650EA013406BF77
:1047700052EA033591EA030F41F4002130BD00BF36
:1047800090F0000F04BF0021704730B54FF48064F3
:1047900004F132044FF000054FF0000150E700BF74
:1047A00090F0000F04BF0021704730B54FF48064D3
:1047B00004F1320410F0004548BF40424FF00001C0
:1047C0003EE700BF42004FEAE2014FEA31014FEA03
:1047D00002701FBF12F07F4393F07F4F81F0605152
:1047E000704732F07F4208BF704793F07F4F04BF9D
:1047F00041F40021704730B54FF4607401F000457A
:1048000021F000411CE700BF50EA010208BF7047D9
:1048100030B54FF000050AE050EA010208BF7047CA
:1048200030B511F0004502D5404261EB41014FF433
:10483000806404F132045FEA915C3FF4D8AE4FF03B
:1048400003025FEADC0C18BF03325FEADC0C18BF1E
:10485000033202EBDC02C2F1200300FA03FC20FA6F
:1048600002F001FA03FE40EA0E0021FA02F11444BC
:10487000BDE600BF53B94AB9002908BF00281CBFD4
:104880004FF0FF314FF0FF3000F082B9ADF1080C6E
:104890006DE904CE00F006F8DDF804E0DDE902235E
:1048A00004B070472DE9F04F099D04460F46002BD8
:1048B00048D18A42944661D9B2FA82F343B1C3F136
:1048C00020019F4002FA03FC9C4020FA01F10F43B3
:1048D0004FEA1C411FFA8CFE220CB7FBF1F601FBDC
:1048E000167706FB0EF042EA0742904208D91CEB0D
:1048F000020206F1FF3702D2904200F237813E46B3
:10490000121AA4B2B2FBF1F001FB102200FB0EFE62
:1049100044EA0244A64508D91CEB040400F1FF3226
:1049200002D2A64500F21C81104640EA0640A4EBE4
:104930000E0400261DB1DC400023C5E900433146CA
:10494000BDE8F08F8B4209D9002D00F0FD800026D4
:10495000C5E9000130463146BDE8F08FB3FA83F671
:10496000002E4BD18B42C0F0F280824240F2EF80A9
:104970003046002DE3D0C5E90047E0E702B9FFDE8D
:10498000B2FA82F3002B40F09D80891A4FEA124E52
:1049900097B20126200CB1FBFEF20EFB121140EA89
:1049A000014107FB02F088420FD91CEB010102F123
:1049B000FF382CBF4FF001094FF00009884203D99E
:1049C000B9F1000F00F0CF804246091AA4B2B1FB42
:1049D000FEF00EFB101100FB07F744EA0144A7426A
:1049E00008D91CEB040400F1FF3102D2A74200F207
:1049F000B4800846E41B40EA02409BE7C6F120076A
:104A0000B34001FA06F422FA07FCF940B2404CEA3E
:104A1000030C20FA07F34FEA1C491C431FFA8CFED3
:104A200000FA06F3200CB1FBF9F809FB181140EA73
:104A3000014108FB0EF088420FD91CEB010108F17F
:104A4000FF3A2CBF4FF0010B4FF0000B884203D907
:104A5000BBF1000F00F08D80D046091AA4B2B1FB63
:104A6000F9F009FB101100FB0EFE44EA01418E45EE
:104A700007D91CEB010100F1FF3401D28E457FD82C
:104A8000204640EA0840A1EB0E01A0FB02984145F8
:104A90004C46C64602D306D14B4504D20138B9EB89
:104AA000020468EB0C0E002D70D01A1B61EB0E0196
:104AB00022FA06F301FA07F7F14000261F43C5E981
:104AC00000713CE702FA03FCC3F1200001FA03F293
:104AD00021FA00F64FEA1C4E24FA00F11FFA8CF777
:104AE0009C401143B6FBFEF00A0C0EFB106642EA36
:104AF000064200FB07F696420ED91CEB020200F1BB
:104B0000FF382CBF4FF001094FF00009964202D93F
:104B1000B9F1000F31D04046921B89B2B2FBFEF6CC
:104B20000EFB162241EA024106FB07F28A4207D930
:104B30001CEB010106F1FF3801D28A4223D8464618
:104B4000891A46EA004625E72E462846F7E6841AE3
:104B500061EB030301201F460BE76444023849E779
:104B600064440238E1E6023A61442EE7023E6244C0
:104B7000C6E6A8F1020861446FE702386244CBE759
:104B8000023861447DE7023E6144D9E72E46D6E60D
:104B9000704700BF08B5074B044613B1002100E081
:104BA00000BF054B1868836A03B19847204600F0A0
:104BB0006BFB00BF000000009069000070B50D4D58
:104BC00000260D4C641BA410A64209D10B4D0026F3
:104BD0000B4C01F019FB641BA410A64205D170BD5B
:104BE00055F8043B01369847EEE755F8043B01368B
:104BF0009847F2E70412002004120020041200205B
:104C0000081200200EB400B59CB06FF000411DAB3F
:104C100002900690079104910848094953F8042B23
:104C2000059102A90068019300F0A0F8029B002200
:104C30001A701CB05DF804EB03B0704754110020EB
:104C40000802FFFF70B50E4E0C460546316811B9DB
:104C500000F0B2FA30602146284600F0ADFA431C5D
:104C60000AD0C41C24F00304A04207D0211A28460D
:104C700000F0A2FA013001D14FF0FF34204670BDA0
:104C8000B01600202DE9F041CD1C074625F00305A4
:104C900008350C2D38BF0C25002D01DBA94205D9A4
:104CA0000C2300263B603046BDE8F0812E4E00F01C
:104CB00093FA33681C4634BB29463846FFF7C2FFD7
:104CC000431C04464DD134682646002E40D123684B
:104CD0003146384604EB030800F06EFA80453AD1BD
:104CE0002168033538466D1A25F0030508350C2D6B
:104CF00038BF0C252946FFF7A5FF01302BD02368CC
:104D00002B4423600EE02268521B1ED40B2A16D9B6
:104D10006119A342256018BF5960636808BF3160FC
:104D200062514B6004F10B06384600F05BFA231D1C
:104D300026F00706F21AB6D09B1BA350B3E76268B1
:104D4000A3420CBF32605A60ECE723466468B2E7C6
:104D500034467668B9E70C2338463B6000F042FAE7
:104D6000A1E72560DEE700BFAC1600202DE9F04F7B
:104D700098468B899DB007461B060D4614460ED5F6
:104D80000B6963B94021FFF77DFF2860286120B9D6
:104D90000C233B604FF0FF30D1E040236B610023D8
:104DA000CDF80C804FF00109DFF8AC810993202386
:104DB0008DF8293030238DF82A3023469A4613F88F
:104DC000012B0AB1252AF9D1BAEB040B0BD05B46B3
:104DD00022462946384601F0ECF8013000F0AA805E
:104DE000099A5A4409929AF80030002B00F0A280E8
:104DF00000234FF0FF320AF1010A049307938DF864
:104E000053301A93CDE9052354460522524814F82D
:104E1000011B01F099F9049AD8B9D00644BF2023A8
:104E20008DF85330110744BF2B238DF853309AF877
:104E300000302A2B15D0079A544600204FF00A0C58
:104E4000214611F8013B303B092B4ED9B0B10792F6
:104E500014E0A0EB0803A24609FA03F313430493FA
:104E6000D2E7039B191D1B68002B0391BBBF5B425C
:104E700042F0020207930793B8BF049223782E2BC7
:104E80000CD163782A2B35D1039B02341A1D1B6881
:104E9000002B0392B8BF4FF0FF330593DFF8C8A093
:104EA00003222178504601F04FF940B14023A0EB96
:104EB0000A00013403FA00F0049B0343049314F83E
:104EC000011B062225488DF8281001F03DF9002825
:104ED00038D0234B1BBB039B073323F00703083356
:104EE0000393099B3344099367E70CFB02320C469A
:104EF0000120A5E7002301344FF00A0C1946059361
:104F0000204610F8012B303A092A03D9002BC5D0CE
:104F10000591C3E70CFB012104460123F0E703AB35
:104F20002A4604A9384600930E4B00E000BF421CFD
:104F30000646D6D1AB895B063FF52CAF09981DB06C
:104F4000BDE8F08F03AB2A4604A938460093054B11
:104F500000F00CF8EBE700BFF4690000FE69000008
:104F600000000000B35F0000FA6900002DE9FF4770
:104F70000F7E914680460C46782F9A460C9D01F193
:104F8000430207D8622F0AD8002F00F0D880582F8C
:104F900000F0A38004F1420584F842703AE0A7F1E2
:104FA0006303152BF6D801A151F823F0055000003A
:104FB00019500000954F0000954F0000954F0000DC
:104FC000954F000019500000954F0000954F0000CC
:104FD000954F0000954F00002551000049500000FA
:104FE00007510000954F0000954F00004751000009
:104FF000954F000049500000954F0000954F00006C
:105000000F5100002B681A1D1B682A6004F142052D
:1050100084F842300123A3E020682968060601F1E4
:1050200004030AD50E682B60002E03DA2D23764286
:1050300084F843305E480A2319E00E6810F0400FF0
:105040002B6018BF36B2EFE72B682068191D296066
:10505000010601D51E6802E04606FBD51E886F2FAB
:1050600053480CBF08230A23002184F843106568C5
:10507000002DA560A2BF216821F0040121600EB9B6
:10508000002D4DD01546B6FBF3F103FB1167C75D4C
:1050900005F8017D37460E46BB42F4D9082B0BD1EB
:1050A0002368DE0708D5236961689942DEBF302393
:1050B00005F8013C05F1FF35521B22614B4603AA5E
:1050C00021464046CDF800A000F0CEFF01304CD183
:1050D0004FF0FF3004B0BDE8F087354881F84570E7
:1050E0002968236851F8046B29601D0614D5DF0771
:1050F00044BF43F0200323601EB9236823F020033C
:1051000023601023B0E7236843F020032360782353
:10511000284884F84530E3E7590648BFB6B2E6E7C9
:105120001546BBE72B682668181D6169286035069F
:105130001B6801D5196002E07006FBD519800023B9
:1051400015462361BAE72B6800211A1D2A601D68E5
:105150006268284600F0F8FF08B1401B6060636891
:105160002361002384F84330A8E723692A4649468F
:105170004046D0470130ABD023689B0713D4E0688A
:10518000039B9842B8BF1846A4E70123324649461C
:105190004046D04701309BD00135E36803995B1A44
:1051A000AB42F2DCEBE7002504F11906F5E700BF9E
:1051B000056A0000166A000038B50023054D044654
:1051C00008462B60FBF7C8FC431C02D12B6803B1D7
:1051D000236038BDB4160020014800F0E8BE00BFCF
:1051E000E1160020014800F0E3BE00BFE1160020F8
:1051F00037B5002943D051F8043C0C1F0190002B17
:10520000B8BFE418FFF7E8FF1E4A0198136833B9E6
:105210006360146003B0BDE83040FFF7E3BFA34212
:1052200008D9256861198B4201BF19685B68491963
:105230002160EDE71A465B680BB1A342FAD9116809
:105240005518A5420BD12468214454181160A3427B
:10525000E0D11C685B68214453601160DAE702D931
:105260000C230360D6E7256861198B4202BF1968D9
:105270005B684919636008BF21605460CAE703B0E6
:1052800030BD00BFAC160020FEE700BF08B500F03F
:1052900059FEFAF7C9FF00F062FEFAF7D3FFFAE70A
:1052A00008B50120FBF772F92020FBF76FF9BDE884
:1052B00008404020FBF76AB908B5FCF7C9F8FBF7CE
:1052C0009FF8FBF70FF9FBF713F9BDE80840FBF770
:1052D0001FB908B500F00EF8FEF704FFBDE808405E
:1052E000FBF7ECB8704770477047704770477047DE
:1052F000FBF7F2B80F20704708B501213A20FCF700
:10530000DFFDFFF7CDFF0120FBF712F90220FBF7CD
:105310000FF90820FBF70CF92020FBF709F9BDE88D
:105320000840FBF76DB901213A20FCF7C9BD2DE912
:10533000F74F00252E460C9F01939040914007F1B6
:10534000020917F9253017F825E0002B37F825401A
:10535000B4BF4FF0FF3C4FF0010C1EF0700F39F856
:1053600025204FEA1E1A0EF0070844F3072412D135
:10537000B8F1000F39D102FB0CF206EB0236019AAC
:105380000135EBB29A42DCD886EAE670A0EBE67013
:1053900003B0BDE8F08F90FBF2F3002CBABFC4F16C
:1053A000000B43FA0BF3A3401AF0060F14BF9A4602
:1053B0004FF0010AB8F1000F1BD091FBF2F2002C64
:1053C000BABF644242FA04F402FA04F41EF0060F73
:1053D00014BFA6464FF0010E0CFB03F30AFB03FAC1
:1053E00004FB0AF40EFB0466C9E74FF0010A5346BA
:1053F000E3E74FF0010E7446EEE737B505240546A6
:10540000112128460DF10702FBF7A0F99DF807309E
:1054100003F0E003202B06D018B9013C14F0FF0480
:10542000EED103B030BD0020FBE7F7B50F460DF11C
:10543000070211210546FBF789F90446F0BB052652
:105440009DF8073003F01F038DF807302846FFF75B
:10545000D4FF044690BBAFB10DF1060211212846DE
:10546000FBF774F99DF806309DF8072003F01F0341
:105470009A42044606D008BB013E16F0FF068DF89E
:105480000730E3D13A460B212846FBF779F9044669
:10549000A0B9052697B10DF1060211212846FBF7A8
:1054A00055F99DF806309DF8072003F01F039A4236
:1054B00004D130B9013E16F0FF06EBD1204603B00F
:1054C000F0BD0446FAE710B501220B21FBF758F9AD
:1054D00004461E20FEF76EFE204610BD1121FFF788
:1054E000A4BFF7B506460D461746FFF786FF0446EC
:1054F00078BB11210DF102023046FBF727F99DF828
:10550000023005F03F0503F01F038DF80230022240
:105510000A213046803D01AB8DF804708DF80550AE
:10552000FBF74CF90446A0B905250DF10302112142
:105530003046FBF70BF99DF803309DF8022003F08D
:105540001F039A4205D138B9013D15F0FF05ECD192
:105550002C46204603B0F0BD0446FAE72DE930485A
:1055600083463220FEF726FE5846FFF7ACFF0F2297
:10557000044601215846FFF7B4FF78220221044473
:105580005846FFF7AEFF7122032104445846FFF747
:10559000A8FF4022042104445846FFF7A2FF4D22F1
:1055A000062104445846FFF79CFFE12207210444EA
:1055B0005846FFF796FF4022082104445846FFF75B
:1055C00090FF412204440A215846FFF78AFFE12256
:1055D00025180B215846FFF784FF50220C21054463
:1055E0005846FFF77EFF4D220E2105445846FFF72F
:1055F00078FF87220F2105445846FFF772FF4022AB
:10560000102105445846FFF76CFF0F220544114650
:105610005846FBF7B5F8281818BF1020BDE83088A9
:105620001FB50C466B4612210D22FBF7EDF89DF8D5
:1056300000309DF8022023709DF80130120242EAEA
:1056400003429DF80330110243EA020348BF43F0CE
:105650007F439DF8052063609DF80430120242EA02
:1056600003429DF806301343120248BF43F07F43C4
:105670009DF80820A3609DF80730120242EA034219
:105680009DF80930110243EA020348BF43F07F430B
:105690009DF80B20E3609DF80A30120242EA0342B3
:1056A0009DF80C301343120248BF43F07F4323613F
:1056B00004B010BD10B588B0144604228DF8043033
:1056C0000DEB020304930123ADF8143002AB0693F3
:1056D00002234900ADF80C1003A9ADF80E20ADF877
:1056E0001C30FBF769FB50B99DF809309DF8082084
:1056F00003F0FC0303EB0223236008B010BD00237A
:105700003120F9E72DE9F0411D46E523074688469B
:105710001646FFF7CFFFC0B943F6095334682A464F
:105720005C43640BA4F5BB54103CE023414638466F
:105730003460FFF7BFFF40B945F2CD5329685943A4
:105740004913A1F5374102392960BDE8F08110B550
:1057500088B00423ADF80E30FC238DF80030C92347
:105760008DF801300223ADF8143001AB0693082305
:105770004900ADF80C1003A91446CDF810D0ADF8CF
:105780001C30FBF719FB28B914B19DF804302370C5
:10579000012000E0002008B010BD70B500220546D1
:1057A0000E46FFF7D4FF044608B1002070BD50201C
:1057B000FEF700FD224631462846FFF7C8FF0028C5
:1057C000F3D11020F2E773B50C460DF10702C121A9
:1057D0000546FBF779F8B0B99DF80760C22133029E
:1057E00003F4FE43284623800DF10702FBF76CF813
:1057F00048B922889DF807301343A3F580432380DE
:10580000F30908BF362002B070BD13B5C9210DF1F0
:1058100007020446FBF758F8E8B99DF80720C921AC
:1058200022F0030242F0010220468DF80720FBF728
:1058300067F880B9C42120460DF10702FBF744F850
:1058400048B19DF80720C42102F0F80220468DF8E7
:105850000720FBF755F802B010BD73B50E4615468C
:10586000E3210DF107020446FBF72EF8A0B99DF8DD
:105870000730DB0712D43246E1212046FBF740F81F
:1058800050B90222E3212046FBF73AF820B92A4614
:10589000E2212046FBF718F802B070BD0420FBE7B8
:1058A00073B504460D461646FBF76CF800BBC021E5
:1058B00020460DF10702FBF707F8C8B99DF807303D
:1058C000C42103F00F021B09327020462B700DF12A
:1058D0000702FAF7F9FF58B99DF80720C42122F012
:1058E000070242F0020220468DF80720FBF708F875
:1058F00002B070BD13B504460120FEF75BFC2046E4
:10590000FBF740F860B920460DF107020DF10601E2
:10591000FFF7C6FF20B99DF80630012B18BF1020F5
:1059200002B010BD73B504460D461646FBF72AF8C3
:10593000002855D1C42120460DF10502FAF7C4FF15
:1059400000284DD19DF80520C42122F00F0242F01D
:105950000A0220468DF80520FAF7D2FF00283FD131
:105960004422CD212046FAF7CBFFC8BB9DBBC42102
:1059700020460DF10502FAF7A7FF88BB9DF8052028
:10598000C42122F00F0242F00C0220468DF80520BF
:10599000FAF7B6FF20BBC42120460DF10502FAF745
:1059A00093FF9DF90530002BF4DBC8B920460DF1BB
:1059B0000601FFF708FF98B9BDF90630C3EB4312A3
:1059C00003EB820375B10A2293FBF2F320463360A6
:1059D000FFF71BFF04E02046FAF7B2FF0028C6D00D
:1059E00002B070BD6422EFE7FEE7002070474FF47D
:1059F000004070474FF47A707047FEE7436803B188
:105A0000184722207047436903B11847FF207047A9
:105A1000704738B50D680C462B78022B0CD069798D
:105A20002879FBF7A9F8B0FA80F0400928702046E1
:105A3000BDE83840FFF7ECBF38BD03681878704701
:105A400010B504682378022B15D061792079FBF713
:105A500093F8A279012A15D1003818BF01204FF61A
:105A6000E071638840EA430363F03F039BB28B42DB
:105A700002D12270638010BD4FF6DF729342F9D1DC
:105A80000022F6E7002AF6D1B0FA80F04009207033
:105A9000F1E703681A78022A03D100225A80FBF743
:105AA00095B8704713B504682378022B10D0A379FA
:105AB000022B0BD100216079FBF7E2FC0023627915
:105AC00020791146CDE90033FCF7B4FF022323709F
:105AD00002B010BDD0E9000318478368006818477A
